{
  "contractName": "Auction",
  "abi": [
    {
      "inputs": [],
      "stateMutability": "nonpayable",
      "type": "constructor"
    },
    {
      "anonymous": false,
      "inputs": [
        {
          "indexed": false,
          "internalType": "address",
          "name": "bidder",
          "type": "address"
        },
        {
          "indexed": false,
          "internalType": "uint256",
          "name": "value",
          "type": "uint256"
        }
      ],
      "name": "declareHighestBidder",
      "type": "event"
    },
    {
      "anonymous": false,
      "inputs": [
        {
          "indexed": false,
          "internalType": "address",
          "name": "bidder",
          "type": "address"
        },
        {
          "indexed": false,
          "internalType": "uint256",
          "name": "value",
          "type": "uint256"
        }
      ],
      "name": "highestBidding",
      "type": "event"
    },
    {
      "inputs": [],
      "name": "GethighestBidder",
      "outputs": [
        {
          "internalType": "address",
          "name": "",
          "type": "address"
        }
      ],
      "stateMutability": "view",
      "type": "function"
    },
    {
      "inputs": [],
      "name": "GethighestBid",
      "outputs": [
        {
          "internalType": "uint256",
          "name": "",
          "type": "uint256"
        }
      ],
      "stateMutability": "view",
      "type": "function"
    },
    {
      "inputs": [],
      "name": "bid",
      "outputs": [],
      "stateMutability": "payable",
      "type": "function"
    },
    {
      "inputs": [],
      "name": "withdraw",
      "outputs": [],
      "stateMutability": "nonpayable",
      "type": "function"
    },
    {
      "inputs": [],
      "name": "DeclareAuctionEnd",
      "outputs": [],
      "stateMutability": "nonpayable",
      "type": "function"
    }
  ],
  "bytecode": "0x60806040526000600760006101000a81548160ff02191690831515021790555034801561002b57600080fd5b50336000806101000a81548173ffffffffffffffffffffffffffffffffffffffff021916908373ffffffffffffffffffffffffffffffffffffffff160217905550620d2f004261007b91906100bf565b600481905550610115565b6000819050919050565b7f4e487b7100000000000000000000000000000000000000000000000000000000600052601160045260246000fd5b60006100ca82610086565b91506100d583610086565b9250827fffffffffffffffffffffffffffffffffffffffffffffffffffffffffffffffff0382111561010a57610109610090565b5b828201905092915050565b610ed3806101246000396000f3fe60806040526004361061004a5760003560e01c80631998aeef1461004f57806323b716721461005957806338f0c09c146100845780633ccfd60b146100af57806396dcb01d146100c6575b600080fd5b6100576100dd565b005b34801561006557600080fd5b5061006e610364565b60405161007b9190610b40565b60405180910390f35b34801561009057600080fd5b5061009961036e565b6040516100a69190610b9c565b60405180910390f35b3480156100bb57600080fd5b506100c4610398565b005b3480156100d257600080fd5b506100db610560565b005b4260045410610121576040517f08c379a000000000000000000000000000000000000000000000000000000000815260040161011890610c14565b60405180910390fd5b600760009054906101000a900460ff1615610171576040517f08c379a000000000000000000000000000000000000000000000000000000000815260040161016890610c80565b60405180910390fd5b61017a3361073e565b156101e3576003339080600181540180825580915050600190039060005260206000200160009091909190916101000a81548173ffffffffffffffffffffffffffffffffffffffff021916908373ffffffffffffffffffffffffffffffffffffffff1602179055505b34600660003373ffffffffffffffffffffffffffffffffffffffff1673ffffffffffffffffffffffffffffffffffffffff16815260200190815260200160002060008282546102329190610ccf565b92505081905550600554600660003373ffffffffffffffffffffffffffffffffffffffff1673ffffffffffffffffffffffffffffffffffffffff16815260200190815260200160002054116102bc576040517f08c379a00000000000000000000000000000000000000000000000000000000081526004016102b390610d71565b60405180910390fd5b61030533600660003373ffffffffffffffffffffffffffffffffffffffff1673ffffffffffffffffffffffffffffffffffffffff168152602001908152602001600020546107ec565b7fa1c453dbe3f25ce0107a6731865967585f2acd17646f4a2efae1d994d87ecc5b600260009054906101000a900473ffffffffffffffffffffffffffffffffffffffff1660055460405161035a929190610d91565b60405180910390a1565b6000600554905090565b6000600260009054906101000a900473ffffffffffffffffffffffffffffffffffffffff16905090565b6000600660003373ffffffffffffffffffffffffffffffffffffffff1673ffffffffffffffffffffffffffffffffffffffff168152602001908152602001600020549050600081111561055d576000600660003373ffffffffffffffffffffffffffffffffffffffff1673ffffffffffffffffffffffffffffffffffffffff1681526020019081526020016000208190555060003373ffffffffffffffffffffffffffffffffffffffff166108fc839081150290604051600060405180830381858888f193505050509050806104b15781600660003373ffffffffffffffffffffffffffffffffffffffff1673ffffffffffffffffffffffffffffffffffffffff1681526020019081526020016000208190555061055b565b60006104bc33610838565b90503373ffffffffffffffffffffffffffffffffffffffff166104dd61036e565b73ffffffffffffffffffffffffffffffffffffffff161480156104fd5750805b1561055957600061050c610927565b905061055781600660008473ffffffffffffffffffffffffffffffffffffffff1673ffffffffffffffffffffffffffffffffffffffff168152602001908152602001600020546107ec565b505b505b505b50565b42600454116105a4576040517f08c379a000000000000000000000000000000000000000000000000000000000815260040161059b90610e06565b60405180910390fd5b600760009054906101000a900460ff16156105f4576040517f08c379a00000000000000000000000000000000000000000000000000000000081526004016105eb90610c80565b60405180910390fd5b6001600760006101000a81548160ff0219169083151502179055507f44bb7538cd5b93d41666e407b08d86820f488df973edbf138525a7a1b94ce114600260009054906101000a900473ffffffffffffffffffffffffffffffffffffffff16600554604051610664929190610d91565b60405180910390a160008054906101000a900473ffffffffffffffffffffffffffffffffffffffff1673ffffffffffffffffffffffffffffffffffffffff166108fc6005549081150290604051600060405180830381858888f193505050501580156106d4573d6000803e3d6000fd5b50600060066000600260009054906101000a900473ffffffffffffffffffffffffffffffffffffffff1673ffffffffffffffffffffffffffffffffffffffff1673ffffffffffffffffffffffffffffffffffffffff16815260200190815260200160002081905550565b600080600090505b6003805490508110156107e1578273ffffffffffffffffffffffffffffffffffffffff166003828154811061077e5761077d610e26565b5b9060005260206000200160009054906101000a900473ffffffffffffffffffffffffffffffffffffffff1673ffffffffffffffffffffffffffffffffffffffff16036107ce5760009150506107e7565b80806107d990610e55565b915050610746565b50600190505b919050565b8060058190555081600260006101000a81548173ffffffffffffffffffffffffffffffffffffffff021916908373ffffffffffffffffffffffffffffffffffffffff1602179055505050565b600080600090505b60038054905081101561091c576003818154811061086157610860610e26565b5b9060005260206000200160009054906101000a900473ffffffffffffffffffffffffffffffffffffffff1673ffffffffffffffffffffffffffffffffffffffff168373ffffffffffffffffffffffffffffffffffffffff160361090957600381815481106108d2576108d1610e26565b5b9060005260206000200160006101000a81549073ffffffffffffffffffffffffffffffffffffffff02191690556001915050610922565b808061091490610e55565b915050610840565b50600090505b919050565b600080600360008154811061093f5761093e610e26565b5b9060005260206000200160009054906101000a900473ffffffffffffffffffffffffffffffffffffffff1690506000600660008373ffffffffffffffffffffffffffffffffffffffff1673ffffffffffffffffffffffffffffffffffffffff1681526020019081526020016000205490506000600190505b600380549050811015610b1e5760066000600383815481106109dc576109db610e26565b5b9060005260206000200160009054906101000a900473ffffffffffffffffffffffffffffffffffffffff1673ffffffffffffffffffffffffffffffffffffffff1673ffffffffffffffffffffffffffffffffffffffff16815260200190815260200160002054821015610b0b576006600060038381548110610a6157610a60610e26565b5b9060005260206000200160009054906101000a900473ffffffffffffffffffffffffffffffffffffffff1673ffffffffffffffffffffffffffffffffffffffff1673ffffffffffffffffffffffffffffffffffffffff16815260200190815260200160002054915060038181548110610add57610adc610e26565b5b9060005260206000200160009054906101000a900473ffffffffffffffffffffffffffffffffffffffff1692505b8080610b1690610e55565b9150506109b7565b50819250505090565b6000819050919050565b610b3a81610b27565b82525050565b6000602082019050610b556000830184610b31565b92915050565b600073ffffffffffffffffffffffffffffffffffffffff82169050919050565b6000610b8682610b5b565b9050919050565b610b9681610b7b565b82525050565b6000602082019050610bb16000830184610b8d565b92915050565b600082825260208201905092915050565b7f41756374696f6e20616c72656164792066696e69736865640000000000000000600082015250565b6000610bfe601883610bb7565b9150610c0982610bc8565b602082019050919050565b60006020820190508181036000830152610c2d81610bf1565b9050919050565b7f456e64696e672041756374696f6e20616c72656164792063616c6c6564000000600082015250565b6000610c6a601d83610bb7565b9150610c7582610c34565b602082019050919050565b60006020820190508181036000830152610c9981610c5d565b9050919050565b7f4e487b7100000000000000000000000000000000000000000000000000000000600052601160045260246000fd5b6000610cda82610b27565b9150610ce583610b27565b9250827fffffffffffffffffffffffffffffffffffffffffffffffffffffffffffffffff03821115610d1a57610d19610ca0565b5b828201905092915050565b7f426964204e6f74204869676820456e6f75676800000000000000000000000000600082015250565b6000610d5b601383610bb7565b9150610d6682610d25565b602082019050919050565b60006020820190508181036000830152610d8a81610d4e565b9050919050565b6000604082019050610da66000830185610b8d565b610db36020830184610b31565b9392505050565b7f41756374696f6e206e6f7420656e646564207965740000000000000000000000600082015250565b6000610df0601583610bb7565b9150610dfb82610dba565b602082019050919050565b60006020820190508181036000830152610e1f81610de3565b9050919050565b7f4e487b7100000000000000000000000000000000000000000000000000000000600052603260045260246000fd5b6000610e6082610b27565b91507fffffffffffffffffffffffffffffffffffffffffffffffffffffffffffffffff8203610e9257610e91610ca0565b5b60018201905091905056fea26469706673582212208ccbd6916862cdca3ebfbc8b980ae41514c7baeadc9c2c1bf94a3418fd299b9964736f6c634300080d0033",
  "immutableReferences": {},
  "source": "// SPDX-License-Identifier: MIT\npragma solidity ^0.8.13;\n\ncontract Auction {\n\n  //declare variables\n  address payable beneficiary;\n  address Owner;\n  address highestBidder;\n  address [] usersAddress;\n  uint auctionEndingtime;\n  uint highestBid;\n  //value of bid any user\n  mapping (address => uint) pendingBids;\n  bool private auctionEnded=false;\n\n  //events\n  event highestBidding(address bidder, uint value);\n  event declareHighestBidder(address bidder, uint value);\n\n  //constructor of contract\n  //_beneficiary : Address of beneficiary that want auction on them\n  //_biddingTime : Auction end time\n  constructor() {\n    beneficiary = payable(msg.sender);\n    auctionEndingtime = block.timestamp + 10 days;\n  }\n\n  //GethighestBidder function : Return highestBidder.\n  function GethighestBidder() view public returns(address){\n    return highestBidder;\n  }\n\n  //GethighestBid function : Return highestBid.\n  function GethighestBid() view public returns(uint){\n    return highestBid;\n  }\n\n  //Sethighest function : Set highestBid & highestBidder.\n  function Sethighest(address _highestBidder,uint _highestBid) private {\n    highestBid=_highestBid;\n    highestBidder=_highestBidder;\n  }\n\n  //CheckNewUSer function : If new user send transaction, his/her address add to usersAddress array.\n  function CheckNewUSer(address _UserAddress) view private returns(bool){\n    for (uint i = 0; i < usersAddress.length; i++) {\n      if(usersAddress[i]==_UserAddress)\n        return false;\n    }\n    return true;\n  }\n\n  //removeUser function : Remove user address from usersAddress array.\n  function removeUser(address _UserAddress) private returns(bool){\n    for (uint i = 0; i < usersAddress.length; i++) {\n      if(_UserAddress == usersAddress[i]){\n        delete usersAddress[i];\n        return true;\n      }\n    }\n    return false;\n  }  \n\n  //findHighestBidder function : Find and return HighestBidder address.\n  function findHighestBidder() private view returns(address){\n    address _highestBidder = usersAddress[0];\n    uint _highestBid = pendingBids[_highestBidder];\n    for (uint i = 1; i < usersAddress.length; i++) {\n      if(_highestBid < pendingBids[usersAddress[i]]){\n        _highestBid=pendingBids[usersAddress[i]];\n        _highestBidder=usersAddress[i];\n      }\n    }\n    return _highestBidder;\n  }\n\n  //Bid function : Before Auction end time this function checks if a user suggest a higher cost that Changes value of variables\n  function bid() payable external{\n    require(auctionEndingtime < block.timestamp, 'Auction already finished');\n    require(!auctionEnded, 'Ending Auction already called');\n\n    if(CheckNewUSer(msg.sender))\n      usersAddress.push(msg.sender);\n\n    pendingBids[msg.sender] += msg.value;   \n    require(pendingBids[msg.sender] > highestBid, 'Bid Not High Enough');\n    \n    Sethighest(msg.sender,pendingBids[msg.sender]);\n    emit highestBidding(highestBidder, highestBid);\n  }\n\n  //Withdraw function : Withdraw own value by users\n  function withdraw() external{\n    uint _value = pendingBids[msg.sender];\n\n    if(_value > 0){  \n      pendingBids[msg.sender] = 0;\n      bool result = payable(msg.sender).send(_value);\n      if(!result){\n        pendingBids[msg.sender] = _value;\n      }\n      else{\n        bool resultRemove = removeUser(msg.sender);\n        if(GethighestBidder() == msg.sender && resultRemove){\n          address highestAddress = findHighestBidder();\n          Sethighest(highestAddress,pendingBids[highestAddress]);\n        }\n      }    \n    }\n  }\n\n //DeclareAuctionEnd function : Final announcement of the winner of the auction\n  function DeclareAuctionEnd() external{\n    require(auctionEndingtime > block.timestamp, 'Auction not ended yet');\n    require(!auctionEnded, 'Ending Auction already called');\n    auctionEnded = true;\n    emit declareHighestBidder(highestBidder, highestBid);\n    beneficiary.transfer(highestBid);\n    pendingBids[highestBidder]=0;\n  }\n}",
  "sourcePath": "C:\\Users\\EZ-Tech\\Desktop\\solidity\\contracts\\Auction.sol",
  "compiler": {
    "name": "solc",
    "version": "0.8.13+commit.abaa5c0e.Emscripten.clang"
  },
  "schemaVersion": "3.4.8",
  "updatedAt": "2022-08-01T23:03:58.525Z",
  "devdoc": {
    "kind": "dev",
    "methods": {},
    "version": 1
  },
  "userdoc": {
    "kind": "user",
    "methods": {},
    "version": 1
  }
}