{
  "contractName": "Ballot",
  "abi": [
    {
      "inputs": [],
      "stateMutability": "nonpayable",
      "type": "constructor"
    },
    {
      "inputs": [
        {
          "internalType": "uint256",
          "name": "",
          "type": "uint256"
        }
      ],
      "name": "proposals",
      "outputs": [
        {
          "internalType": "string",
          "name": "name",
          "type": "string"
        },
        {
          "internalType": "uint256",
          "name": "voteCount",
          "type": "uint256"
        }
      ],
      "stateMutability": "view",
      "type": "function",
      "constant": true
    },
    {
      "inputs": [
        {
          "internalType": "address",
          "name": "",
          "type": "address"
        }
      ],
      "name": "voters",
      "outputs": [
        {
          "internalType": "uint256",
          "name": "weight",
          "type": "uint256"
        },
        {
          "internalType": "bool",
          "name": "voted",
          "type": "bool"
        },
        {
          "internalType": "address",
          "name": "delegate",
          "type": "address"
        },
        {
          "internalType": "uint256",
          "name": "vote",
          "type": "uint256"
        }
      ],
      "stateMutability": "view",
      "type": "function",
      "constant": true
    },
    {
      "inputs": [
        {
          "internalType": "address",
          "name": "voter",
          "type": "address"
        }
      ],
      "name": "giveRightToVote",
      "outputs": [],
      "stateMutability": "nonpayable",
      "type": "function"
    },
    {
      "inputs": [
        {
          "internalType": "address",
          "name": "to",
          "type": "address"
        }
      ],
      "name": "delegate",
      "outputs": [],
      "stateMutability": "nonpayable",
      "type": "function"
    },
    {
      "inputs": [
        {
          "internalType": "uint256",
          "name": "proposalIndex",
          "type": "uint256"
        }
      ],
      "name": "vote",
      "outputs": [],
      "stateMutability": "nonpayable",
      "type": "function"
    },
    {
      "inputs": [],
      "name": "wininngProposal",
      "outputs": [
        {
          "internalType": "uint256",
          "name": "winningIndex",
          "type": "uint256"
        },
        {
          "internalType": "string",
          "name": "winnerName",
          "type": "string"
        }
      ],
      "stateMutability": "view",
      "type": "function",
      "constant": true
    }
  ],
  "bytecode": "0x60806040523480156200001157600080fd5b5033600260006101000a81548173ffffffffffffffffffffffffffffffffffffffff021916908373ffffffffffffffffffffffffffffffffffffffff160217905550600160405180604001604052806040518060400160405280600881526020017f706572736f6e30310000000000000000000000000000000000000000000000008152508152602001600081525090806001815401808255809150506001900390600052602060002090600202016000909190919091506000820151816000019080519060200190620000e792919062000204565b50602082015181600101555050600160405180604001604052806040518060400160405280600881526020017f706572736f6e303200000000000000000000000000000000000000000000000081525081526020016000815250908060018154018082558091505060019003906000526020600020906002020160009091909190915060008201518160000190805190602001906200018892919062000204565b506020820151816001015550506001600080600260009054906101000a900473ffffffffffffffffffffffffffffffffffffffff1673ffffffffffffffffffffffffffffffffffffffff1673ffffffffffffffffffffffffffffffffffffffff1681526020019081526020016000206000018190555062000318565b8280546200021290620002e3565b90600052602060002090601f01602090048101928262000236576000855562000282565b82601f106200025157805160ff191683800117855562000282565b8280016001018555821562000282579182015b828111156200028157825182559160200191906001019062000264565b5b50905062000291919062000295565b5090565b5b80821115620002b057600081600090555060010162000296565b5090565b7f4e487b7100000000000000000000000000000000000000000000000000000000600052602260045260246000fd5b60006002820490506001821680620002fc57607f821691505b602082108103620003125762000311620002b4565b5b50919050565b6110e880620003286000396000f3fe608060405234801561001057600080fd5b50600436106100625760003560e01c80630121b93f14610067578063013cf08b146100835780635c19a95c146100b4578063911e09ad146100d05780639e7b8d61146100ef578063a3ec138d1461010b575b600080fd5b610081600480360381019061007c9190610a33565b61013e565b005b61009d60048036038101906100989190610a33565b610283565b6040516100ab929190610b08565b60405180910390f35b6100ce60048036038101906100c99190610b96565b61033f565b005b6100d86106db565b6040516100e6929190610bc3565b60405180910390f35b61010960048036038101906101049190610b96565b610858565b005b61012560048036038101906101209190610b96565b61099b565b6040516101359493929190610c1d565b60405180910390f35b60008060003373ffffffffffffffffffffffffffffffffffffffff1673ffffffffffffffffffffffffffffffffffffffff168152602001908152602001600020905060008160000154036101c7576040517f08c379a00000000000000000000000000000000000000000000000000000000081526004016101be90610cae565b60405180910390fd5b8060010160009054906101000a900460ff1615610219576040517f08c379a000000000000000000000000000000000000000000000000000000000815260040161021090610d1a565b60405180910390fd5b60018160010160006101000a81548160ff02191690831515021790555081816002018190555080600001546001838154811061025857610257610d3a565b5b906000526020600020906002020160010160008282546102789190610d98565b925050819055505050565b6001818154811061029357600080fd5b90600052602060002090600202016000915090508060000180546102b690610e1d565b80601f01602080910402602001604051908101604052809291908181526020018280546102e290610e1d565b801561032f5780601f106103045761010080835404028352916020019161032f565b820191906000526020600020905b81548152906001019060200180831161031257829003601f168201915b5050505050908060010154905082565b60008060003373ffffffffffffffffffffffffffffffffffffffff1673ffffffffffffffffffffffffffffffffffffffff16815260200190815260200160002090508060010160009054906101000a900460ff16156103d3576040517f08c379a00000000000000000000000000000000000000000000000000000000081526004016103ca90610e9a565b60405180910390fd5b3373ffffffffffffffffffffffffffffffffffffffff168273ffffffffffffffffffffffffffffffffffffffff1603610441576040517f08c379a000000000000000000000000000000000000000000000000000000000815260040161043890610f06565b60405180910390fd5b5b600073ffffffffffffffffffffffffffffffffffffffff166000808473ffffffffffffffffffffffffffffffffffffffff1673ffffffffffffffffffffffffffffffffffffffff16815260200190815260200160002060010160019054906101000a900473ffffffffffffffffffffffffffffffffffffffff1673ffffffffffffffffffffffffffffffffffffffff16146105ae576000808373ffffffffffffffffffffffffffffffffffffffff1673ffffffffffffffffffffffffffffffffffffffff16815260200190815260200160002060010160019054906101000a900473ffffffffffffffffffffffffffffffffffffffff1691508173ffffffffffffffffffffffffffffffffffffffff163373ffffffffffffffffffffffffffffffffffffffff16036105a9576040517f08c379a00000000000000000000000000000000000000000000000000000000081526004016105a090610f72565b60405180910390fd5b610442565b60018160010160006101000a81548160ff021916908315150217905550818160010160016101000a81548173ffffffffffffffffffffffffffffffffffffffff021916908373ffffffffffffffffffffffffffffffffffffffff16021790555060008060008473ffffffffffffffffffffffffffffffffffffffff1673ffffffffffffffffffffffffffffffffffffffff1681526020019081526020016000209050600115158160010160009054906101000a900460ff161515036106b6578160000154600182600201548154811061068a57610689610d3a565b5b906000526020600020906002020160010160008282546106aa9190610d98565b925050819055506106d6565b81600001548160000160008282546106ce9190610d98565b925050819055505b505050565b600060606000805b60018054905081101561075c576001818154811061070457610703610d3a565b5b906000526020600020906002020160010154821015610749576001818154811061073157610730610d3a565b5b90600052602060002090600202016001015491508093505b808061075490610f92565b9150506106e3565b50600081036107a2576040518060400160405280600681526020017f4e6f626f647900000000000000000000000000000000000000000000000000008152509150610853565b600183815481106107b6576107b5610d3a565b5b906000526020600020906002020160000180546107d290610e1d565b80601f01602080910402602001604051908101604052809291908181526020018280546107fe90610e1d565b801561084b5780601f106108205761010080835404028352916020019161084b565b820191906000526020600020905b81548152906001019060200180831161082e57829003601f168201915b505050505091505b509091565b600260009054906101000a900473ffffffffffffffffffffffffffffffffffffffff1673ffffffffffffffffffffffffffffffffffffffff163373ffffffffffffffffffffffffffffffffffffffff16146108b257600080fd5b60008060008373ffffffffffffffffffffffffffffffffffffffff1673ffffffffffffffffffffffffffffffffffffffff16815260200190815260200160002090508060010160009054906101000a900460ff1615610946576040517f08c379a000000000000000000000000000000000000000000000000000000000815260040161093d90611026565b60405180910390fd5b600081600001541461098d576040517f08c379a000000000000000000000000000000000000000000000000000000000815260040161098490611092565b60405180910390fd5b600181600001819055505050565b60006020528060005260406000206000915090508060000154908060010160009054906101000a900460ff16908060010160019054906101000a900473ffffffffffffffffffffffffffffffffffffffff16908060020154905084565b600080fd5b6000819050919050565b610a10816109fd565b8114610a1b57600080fd5b50565b600081359050610a2d81610a07565b92915050565b600060208284031215610a4957610a486109f8565b5b6000610a5784828501610a1e565b91505092915050565b600081519050919050565b600082825260208201905092915050565b60005b83811015610a9a578082015181840152602081019050610a7f565b83811115610aa9576000848401525b50505050565b6000601f19601f8301169050919050565b6000610acb82610a60565b610ad58185610a6b565b9350610ae5818560208601610a7c565b610aee81610aaf565b840191505092915050565b610b02816109fd565b82525050565b60006040820190508181036000830152610b228185610ac0565b9050610b316020830184610af9565b9392505050565b600073ffffffffffffffffffffffffffffffffffffffff82169050919050565b6000610b6382610b38565b9050919050565b610b7381610b58565b8114610b7e57600080fd5b50565b600081359050610b9081610b6a565b92915050565b600060208284031215610bac57610bab6109f8565b5b6000610bba84828501610b81565b91505092915050565b6000604082019050610bd86000830185610af9565b8181036020830152610bea8184610ac0565b90509392505050565b60008115159050919050565b610c0881610bf3565b82525050565b610c1781610b58565b82525050565b6000608082019050610c326000830187610af9565b610c3f6020830186610bff565b610c4c6040830185610c0e565b610c596060830184610af9565b95945050505050565b7f486173206e6f20526967687420746f20766f7465000000000000000000000000600082015250565b6000610c98601483610a6b565b9150610ca382610c62565b602082019050919050565b60006020820190508181036000830152610cc781610c8b565b9050919050565b7f416c726561647920566f7465642e000000000000000000000000000000000000600082015250565b6000610d04600e83610a6b565b9150610d0f82610cce565b602082019050919050565b60006020820190508181036000830152610d3381610cf7565b9050919050565b7f4e487b7100000000000000000000000000000000000000000000000000000000600052603260045260246000fd5b7f4e487b7100000000000000000000000000000000000000000000000000000000600052601160045260246000fd5b6000610da3826109fd565b9150610dae836109fd565b9250827fffffffffffffffffffffffffffffffffffffffffffffffffffffffffffffffff03821115610de357610de2610d69565b5b828201905092915050565b7f4e487b7100000000000000000000000000000000000000000000000000000000600052602260045260246000fd5b60006002820490506001821680610e3557607f821691505b602082108103610e4857610e47610dee565b5b50919050565b7f416c726561647920766f7465642e000000000000000000000000000000000000600082015250565b6000610e84600e83610a6b565b9150610e8f82610e4e565b602082019050919050565b60006020820190508181036000830152610eb381610e77565b9050919050565b7f4e6f7420616c6c6f77656420746f2064656c696761746520796f757273656c66600082015250565b6000610ef0602083610a6b565b9150610efb82610eba565b602082019050919050565b60006020820190508181036000830152610f1f81610ee3565b9050919050565b7f466f756e64206c6f6f7020696e2064656c65676174696f6e0000000000000000600082015250565b6000610f5c601883610a6b565b9150610f6782610f26565b602082019050919050565b60006020820190508181036000830152610f8b81610f4f565b9050919050565b6000610f9d826109fd565b91507fffffffffffffffffffffffffffffffffffffffffffffffffffffffffffffffff8203610fcf57610fce610d69565b5b600182019050919050565b7f416c726561647920766f74656400000000000000000000000000000000000000600082015250565b6000611010600d83610a6b565b915061101b82610fda565b602082019050919050565b6000602082019050818103600083015261103f81611003565b9050919050565b7f4e6f7420726967687420746f20766f7465000000000000000000000000000000600082015250565b600061107c601183610a6b565b915061108782611046565b602082019050919050565b600060208201905081810360008301526110ab8161106f565b905091905056fea26469706673582212206399d345f7c5af7ec1d400562b8801fc81b61aa86d927da43800b7d9277cba8264736f6c634300080d0033",
  "immutableReferences": {},
  "source": "// SPDX-License-Identifier: MIT\npragma solidity ^0.8.13;\n\ncontract Ballot{\n\n    struct Voter{\n        uint weight;\n        bool voted;\n        address delegate;\n        uint vote;\n    }\n\n    struct Proposal{\n        string name;\n        uint voteCount;\n    }\n\n    mapping(address => Voter) public voters;\n    Proposal[] public proposals;\n    address owner;\n\n    modifier onlyOwner {\n      require(msg.sender == owner);\n      _;\n    }\n\n    constructor(){\n        owner = msg.sender;\n        proposals.push(Proposal({\n                name : \"person01\",\n                voteCount : 0\n            }));\n        proposals.push(Proposal({\n                name : \"person02\",\n                voteCount : 0\n            }));\n        voters[owner].weight = 1;\n    }\n\n    function giveRightToVote(address voter) public onlyOwner{\n        Voter storage temp = voters[voter];\n        require(!temp.voted, \"Already voted\");\n        require(temp.weight == 0, \"Not right to vote\");\n        temp.weight = 1;\n    }\n\n    function delegate(address to) public{\n        Voter storage sender = voters[msg.sender];\n        require(!sender.voted, \"Already voted.\");\n        require(to != msg.sender, \"Not allowed to deligate yourself\");\n\n        while(voters[to].delegate != address(0)){\n            to = voters[to].delegate;\n            require(msg.sender != to, \"Found loop in delegation\");\n        }\n        \n        sender.voted = true;\n        sender.delegate = to;\n        Voter storage delegate_ = voters[to];\n        if(delegate_.voted == true){\n            proposals[delegate_.vote].voteCount += sender.weight;\n        } else{\n            delegate_.weight += sender.weight;\n        }    \n    }\n\n    function vote(uint proposalIndex) public{\n        Voter storage voter = voters[msg.sender];\n        require(voter.weight != 0, \"Has no Right to vote\");\n        require(!voter.voted,\"Already Voted.\");\n        voter.voted = true;\n        voter.vote = proposalIndex;\n\n        proposals[proposalIndex].voteCount += voter.weight;\n    }\n\n    function wininngProposal() public view returns(uint winningIndex, string memory winnerName){\n        uint maxVoteCount = 0;\n        for(uint i=0;i<proposals.length;i++)\n            if(maxVoteCount < proposals[i].voteCount){\n                maxVoteCount = proposals[i].voteCount;\n                winningIndex = i;\n            }\n        if(maxVoteCount== 0)\n            winnerName = \"Nobody\";\n        else \n            winnerName = proposals[winningIndex].name;\n    }\n}",
  "sourcePath": "C:\\Users\\EZ-Tech\\Desktop\\projects\\solidity\\contracts\\Ballot.sol",
  "compiler": {
    "name": "solc",
    "version": "0.8.13+commit.abaa5c0e.Emscripten.clang"
  },
  "schemaVersion": "3.4.8",
  "updatedAt": "2022-08-06T12:27:44.762Z",
  "networkType": "ethereum",
  "devdoc": {
    "kind": "dev",
    "methods": {},
    "version": 1
  },
  "userdoc": {
    "kind": "user",
    "methods": {},
    "version": 1
  }
}